:2000000012C02CC032C62AC029C028C027C026C025C01CC223C022C021C020C01FC01EC09C
:200020001DC01CC01BC011241FBECFE5D4E0DEBFCDBF10E0A0E6B0E0E2E5F3E102C0059091
:200040000D92A037B107D9F713E0A0E7B0E001C01D92AF38B107E1F770D879C9D1CF83E024
:2000600083BF82EC82BF89B7816089BF08958B98939A80E88BBF15BE0895CF93DF93FC0146
:20008000EB0182818A83818189838081888384818C8383818B83858196819E838D83248131
:2000A00080E090E00CC0DF01A80FB91F17963C91DE01A80FB91F17963C93179701968217F3
:2000C00090F3DF91CF910895DF92EF92FF920F931F93CF93DF930F92CDB7DEB78C01AED6BA
:2000E0008983898186FF03C0C29880E905C0898187FF32C0C29884E9FCD58FEFFAD5E82E9D
:20010000FF2483E0EE0CFF1C8A95E1F78FEFF1D582958695877090E08E299F299C0146E02E
:20012000369527954A95E1F7F80120839C012E733070369527952183817082838FEFD9D5BA
:200140008FEFD7D58FEFD5D56FE0D62ED822F801D482EE24FF240CC0C29A8FEF24C08FEF74
:20016000C8D5F801EE0DFF1D87830894E11CF11CED14A8F3C29A898183FF04C081E0F80180
:20018000838302C0F8011382F80116821582898186FF03C08CE261E002C08CE262E040E04E
:2001A000CFD5898187700F90DF91CF911F910F91FF90EF90DF900895CF92DF92EF92FF92DD
:2001C0000F931F93CF93DF930F92CDB7DEB78C01C29880EA8ED58FEF8CD589838FEF89D5C2
:2001E000C29A898182FF09C0898184FF08C0898186FD50C0F4E0DF2E04C0DD2402C0E2E033
:20020000DE2EC2988D2D806474D5F8019081990F990F990F818186958695892B6AD5F8016B
:2002200082818295880F807E91819295990F990F907C892B5ED580E05CD580E05AD5F8017A
:20024000C480F8E0FC1510F478E0C72EF8018381882321F08C2D80644CD50FC08C2D49D503
:20026000EE24FF2408C0F801EE0DFF1D878141D50894E11CF11CEC14B0F3C29A0000C29854
:20028000DD2011F481E802C08D2D806832D5C29A81E001C080E00F90DF91CF911F910F91EB
:2002A000FF90EF90DF90CF90089593B320B386B380789F73892B30E020713070220F331FF1
:2002C000220F331F822B08952091720030E0B901B4E0660F771FBA95E1F7621B730B6B58E0
:2002E0007F4FCBDE80917200883118F01092720008958F5F8093720008950F931F93CF93CC
:20030000DF93CDB7DEB72F970FB6F894DEBF0FBECDBF182F092FBE016F5F7F4F8FE0FB0100
:2003200011928A95E9F720917300809172008217B1F030E0C90144E0880F991F4A95E1F736
:20034000821B930B8B589F4F98DE80917300883118F01092730003C08F5F80937300E12F7A
:20036000F02FDE0111968FE00D9001928150E1F7812F902F2F960FB6F894DEBF0FBECDBF15
:20038000DF91CF911F910F9108952091700030E0B90154E0660F771F5A95E1F7621B730BB4
:2003A00064517E4F6ADE80917000883118F01092700008958F5F8093700008950F931F9320
:2003C000CF93DF93CDB7DEB72F970FB6F894DEBF0FBECDBF182F092FBE016F5F7F4F8FE0DA
:2003E000FB0111928A95E9F720917100809170008217B1F030E0C901E4E0880F991FEA9516
:20040000E1F7821B930B84519E4F37DE80917100883118F01092710003C08F5F8093710067
:20042000E12FF02FDE0111968FE00D9001928150E1F7812F902F2F960FB6F894DEBF0FBED0
:20044000CDBFDF91CF911F910F9108951F920F920FB60F921124CF92DF92EF92FF920F93E0
:200460001F932F933F934F935F936F937F938F939F93AF93BF93EF93FF93CF93DF930F92DD
:20048000CDB7DEB780916903803160F0803111F480E06AD580916903893170F18FEF809347
:2004A00069032AC0883088F0883009F4909880E05BD5809169038850CED4E0916903F0E0A5
:2004C000E958FC4F808150D517C0882309F4909A80E04AD580916903BED4E0916903F0E086
:2004E000E159FC4F808140D50091690310E0DDDEF801E958FC4F8083809169038F5F8093B3
:20050000690380916A03843120F48F5F80936A0387C310926A0380916B038A3008F07EC3EF
:200520008F5F80936B038130E9F4A8958091790381FD02C080E65FC080FD02C080E45BC071
:200540009091890382FD0CC092FF42C180E88093670080E690E019DF809189038B7F1DC0DB
:2005600094601FC0823001F58091790384FD02C081E641C083FD02C081E43DC09091890377
:2005800085FD0EC095FF24C181E88093670080E690E0FBDE809189038F7D8093890318C1DF
:2005A00090629093890314C18330F1F48091790387FD02C082E61FC086FD02C082E41BC08D
:2005C00090917A0380918A0390FD0CC080FF00C182E88093670080E690E0D7DE80918A0339
:2005E0008E7F22C0816020C0843029F580917A0382FD07C083E68093670080E690E0C5DE49
:20060000E7C081FD02C083E4F6CF90918A0383FD0EC093FFDDC083E88093670080E690E0E1
:20062000B4DE80918A03877F80938A03D1C0986090938A03CDC0853001F580917C0385FD61
:2006400002C084E6D8CF84FD02C084E4D4CF90918C0383FD0EC093FFBBC084E88093670088
:2006600080E690E092DE80918C03877F80938C03AFC0986090938C03ABC0863009F0A8C051
:2006800090917C0380918C0392FD17C082FF18C080916C03882341F4A7D481E080936C039D
:2006A00084E065E17AD405C010926C0384E065E187D480918C038B7F01C0846080938C0376
:2006C00090917B0380918B0390FD3CC080FF3DC080916C03813041F48093630310926C03E7
:2006E00084E065E16DD426C004E613E020E0F0E0CF2EF0E0DF2EC01AD10AA2E0EA2EFF2430
:20070000F394822F806280936700C601800F911F298308D680936800F80181938F01E0922B
:20072000640080E690E031DEF092640029812F5F253039F759D481E066E12FD480918B0356
:200740008E7F01C0816080938B0390917B0380918B0391FD3AC081FF3BC080916C038130D7
:2007600049F482E08093630310926C0384E065E127D423C004E613E0CC24DD24E2E0EE2E1C
:20078000FF24F3948C2D806280936700C6018B5F9F4FC8D580936800F80181938F01E092D4
:2007A000640080E690E0F1DDF09264000894C11CD11CF5E0CF16D10429F716D482E066E1A3
:2007C000ECD380918B038D7F01C0826080938B0380916B03873009F0C8C090917B03809104
:2007E0008B0392FD3AC082FF3BC080916C03813049F483E08093630310926C0384E065E161
:20080000DFD323C004E613E0CC24DD2472E0E72EFF24F3948C2D806280936700C601865FA3
:200820009F4F80D580936800F80181938F01E092640080E690E0A9DDF09264000894C11CCC
:20084000D11CF5E0CF16D10429F7CED384E066E1A4D380918B038B7F01C0846080938B034A
:2008600090917B0380918B0393FD39C083FF3AC080916C03813041F484E080936303109250
:200880006C0365E19DD323C004E613E0CC24DD2462E0E62EFF24F3948C2D8062809367006D
:2008A000C601815F9F4F3ED580936800F80181938F01E092640080E690E067DDF0926400A2
:2008C0000894C11CD11CF5E0CF16D10429F78CD388E066E162D380918B03877F01C0886072
:2008E00080938B0390917B0380918B0394FD3AC084FF3BC080916C03813049F485E080932A
:20090000630310926C0384E065E15AD323C004E613E0CC24DD2452E0E52EFF24F3948C2D30
:20092000806280936700C6018C5E9F4FFBD480936800F80181938F01E092640080E690E029
:2009400024DDF09264000894C11CD11CF5E0CF16D10429F749D380E166E11FD380918B0346
:200960008F7E01C0806180938B0380916B03883009F0C9C090917B0380918B0395FD3AC0A4
:2009800085FF3BC080916C03813049F486E08093630310926C0384E065E112D323C004E61E
:2009A00013E0CC24DD2442E0E42EFF24F3948C2D806280936700C601875E9F4FB3D480932C
:2009C0006800F80181938F01E092640080E690E0DCDCF09264000894C11CD11CF5E0CF16A8
:2009E000D10429F701D380E266E1D7D280918B038F7D01C0806280938B0390917B0380913D
:200A00008B0396FD3AC086FF3BC080916C03813049F487E08093630310926C0384E065E132
:200A2000CFD223C004E613E0CC24DD2432E0E32EFF24F3948C2D806280936700C601825EDB
:200A40009F4F70D480936800F80181938F01E092640080E690E099DCF09264000894C11CCC
:200A6000D11CF5E0CF16D10429F7BED280E466E194D280918B038F7B01C0806480938B034A
:200A800090917B0380918B0397FD3AC087FF3BC080916C03813049F488E080936303109218
:200AA0006C0384E065E18CD223C004E613E0CC24DD2422E0E22EFF24F3948C2D80628093A4
:200AC0006700C6018D5D9F4F2DD480936800F80181938F01E092640080E690E056DCF09297
:200AE00064000894C11CD11CF5E0CF16D10429F77BD280E866E151D280918B038F7701C0F8
:200B0000806880938B0390916B03993009F088C020917C0380918C0320FD39C080FF3AC054
:200B200080916C03813041F49093630310926C0384E065E145D223C004E613E0CC24DD2443
:200B400092E0E92EFF24F3948C2D806280936700C601885D9F4FE6D380936800F801819372
:200B60008F01E092640080E690E00FDCF09264000894C11CD11CF5E0CF16D10429F734D24D
:200B800080E465E10AD280918C038E7F01C0816080938C0390917C0380918C0391FD3AC016
:200BA00081FF3EC080916C03813049F48AE08093630310926C0384E065E102D223C004E60A
:200BC00013E0CC24DD2482E0E82EFF24F3948C2D806280936700C601835D9F4FA3D38093DC
:200BE0006800F80181938F01E092640080E690E0CCDBF09264000894C11CD11CF5E0CF1697
:200C0000D10429F7F1D180E865E1C7D180918C038D7F01C0826080938C0302C010926B0314
:200C200080916D0390916E03019690936E0380936D0382EC82BF0F90DF91CF91FF91EF91C5
:200C4000BF91AF919F918F917F916F915F914F913F912F911F910F91FF90EF90DF90CF9018
:200C60000F900FBE0F901F9018951F920F920FB60F9211242F933F934F935F936F937F93A4
:200C80008F939F93AF93BF93EF93FF93CF93DF93CDB7DEB72F97DEBFCDBF03C0CE01019653
:200CA00013DBCE01019610DA8F3FC1F72F96DEBFCDBFDF91CF91FF91EF91BF91AF919F91E2
:200CC0008F917F916F915F914F913F912F910F900FBE0F901F90189587B3886287BB88B37C
:200CE000877C88BBBA9AC29A80E58DB981E08EB908958FB9779BFECF8FB108951F93CF93F6
:200D0000DF930F92CDB7DEB7182FC29882E06983F0DF812FEEDF6981862FEBDFC29A0F9008
:200D2000DF91CF911F910895CF93C82FC29883E0E0DF8C2FDEDF8FEFDCDFC29ACF910895B7
:200D40001F93CF93DF9300D0CDB7DEB7182FC29885E04A836983CDDF812FCBDF6981862FC0
:200D6000C8DF4A81842FC5DFC29A0F900F90DF91CF911F910895C298BCDF8FEFBADFC29A8B
:200D80000895AADFC29880ECB4DF8FEC97E00197F1F700C00000C29AAFE1BEE41197F1F784
:200DA00000C000008AE267E0A9DF89E260E9A6DF88E262E0A3DF8BE263E0A0DF8FE067E0EC
:200DC00045E0BEDF8FEF90E7A2E081509040A040E1F700C0000080E660E290DF80E760E201
:200DE0008DDF80E260E08ADF81E260E087DF82E260E084DF83E260E081DF80E060E07EDF6A
:200E000081E060E07BDF84E26FEF78DF85E260EE75DF86E260E072DF87E260E06FDF8CE057
:200E200060E06CDF8CE065E044E08ADF8DE060E065DF8FE060EE40E083DF0895CF93C29860
:200E400080EB57DF8FEF55DFC82F8FEF52DFC29A8C2FCF910895883058F428B3982F9370DC
:200E60002C7F922B98BB92B384709B7F892B82BB08950F931F93CF93DF93843008F041C001
:200E800040E050E0E0E0F0E090E0A62FB0E0C1E0D0E04A175B0744F48E010E2E02C0000FB5
:200EA000111F0A94E2F7902B3196475E5F4F483C510579F7E82FF0E0E159FC4F9083693C48
:200EC00020F0623E20F421E003C020E001C023E06091730390E0880F991F30E0082E02C098
:200EE000220F331F0A94E2F743E050E002C0440F551F8A95E2F740954623422B4093730330
:200F00002EC0843061F520E030E040E050E070E0E62FF0E0A1E0B0E02E173F0744F4ED0182
:200F2000042E02C0CC0FDD1F0A94E2F77C2B4F5F5F4F275E3F4F283C310571F770938603CB
:200F4000693C20F0623E20F491E003C090E001C093E0809184038C7F892B80938403DF91EF
:200F6000CF911F910F91089598E087FF02C0959A01C09598979A9798880F9150B1F7969A97
:200F80009698089581B3806E81BBB89AB99A8A9A81E061DF80E0E8DF0895E62FF0E09F0175
:200FA000207F3070EF70F0702115310519F4E159FC4F02C0E158FC4F9081982B908308956B
:200FC00070E09B01207F30706F7070708095FB012115310519F4E159FC4F02C0E158FC4FD2
:200FE000908198239083089510928503E5E8F3E082918F7380830895CF93C62F8823B9F447
:2010000084E065E0CC2329F4DBDF81E065E0D8DF0CC0C3DF81E065E0CF3F21F0BEDFC03143
:2010200020F001C0CDDF82E031C082E032C08130B9F480E265E0CC2329F4C2DF88E065E02D
:20104000BFDF0CC0AADF88E065E0CF3F21F0A5DFC03120F001C0B4DF80E118C080E119C085
:201060008230C9F481E066E0CC2329F4A9DF80E465E0A6DF0DC091DF80E465E0CF3F21F093
:201080008CDFC03128F001C09BDF80E865E035C080E865E036C08330C9F488E066E0CC234F
:2010A00029F48EDF82E066E08BDF0DC076DF82E066E0CF3F21F071DFC03128F001C080DF32
:2010C00084E066E01AC084E066E01BC08430D1F488E065E1CC2329F473DF80E165E170DF8C
:2010E0000EC05BDF80E165E1CF3F21F056DFC03130F001C065DF80E265E14FDF03C080E2DC
:2011000065E15EDFCF91089510BC83E389B95998539A86E880BD08955D9BFECF8CB980E04B
:2011200090E00895CF93DF93EC0101C0F5DF89918823E1F7DF91CF910895CF93DF93CDB7EA
:20114000DEB76E970FB6F894DEBF0FBECDBF2DE088E190E00FB6F894A895809341000FBE19
:20116000209341000FDF0DDE7AD781D7E6E7F0E080E010828F5F3F968931D9F7BF9884B38F
:20118000807C84BB8C98C79A85B38F6385BB949A889A909AA7E7B3E027E833E080E090E098
:2011A0004FEFFC01E159FC4F1082FC01E158FC4F10824D93F90141939F0101968830910597
:2011C00081F780E180937F0378941092670080E690E0F2D78FE19EE40197F1F700C00000BB
:2011E00081E08093670080E690E0E6D7EFE1FEE43197F1F700C0000082E08093670080E61D
:2012000090E0DAD78FE19EE40197F1F700C0000083E08093670080E690E0CED7EFE1FEE471
:201220003197F1F700C0000084E08093670080E690E0C2D78FE19EE40197F1F700C00000BF
:201240002CE088E190E00FB6F894A895809341000FBE209341008091630381508A3008F507
:20126000B4E6EB2EB3E0FB2E00E010E0F70161917F012091630330E021503040C901880F5C
:20128000991F880F991F820F931F800F911F8050904050D00F5F1F4F0530110539F710920C
:2012A0006303CE01019629D88A81882309F18D818823F1F00885902F9295969597709730AB
:2012C000B9F48230A8F00F71053090F4802F6985D0DD802F698590DE10E00C591C4FF801D0
:2012E00090818985981721F07FDE8985F8018083CE01409663D8DE011196FE0170968FE0CE
:2013000001900D928150E1F78A81882309F4A3CFCE01019651D7882309F09DCFCE010196CB
:2013200034D899CFE199FECF9FBB8EBBE09A99278DB30895262FE199FECF9FBB8EBB2DBB11
:201340000FB6F894E29AE19A0FBE01960895F894FFCF150B000001000000000000000000C9
:0213600000800B
:00000001FF
